:100000000C942A000C9447000C9447000C94470071
:100010000C9447000C9447000C9447000C94470044
:100020000C9447000C9447000C9447000C94470034
:100030000C9447000C9447000C9447000C94470024
:100040000C9447000C9447000C9447000C94470014
:100050000C94470011241FBECFE5D8E0DEBFCDBF12
:1000600010E0A0E6B0E0ECE2F6E002C005900D92F0
:10007000A638B107D9F710E0A6E8B0E001C01D929C
:10008000AD38B107E1F70E9412010C9414030C94EF
:10009000000080E487B986E886B9089597B1877033
:1000A000982B97B9369A3699FECF84B195B10895B9
:1000B0008E98969A089580B380740895E199FECF42
:1000C0009FBB8EBB6DBBE29AE19A0895E199FECF8A
:1000D0009FBB8EBBE09A8DB3089506B607FEFDCF99
:1000E000089581B1887F089580E282B90895CF9301
:1000F000C82F84E486BF0E947100883AE1F7C3B933
:1001000084E886BF0E946D000E9471008FEFCF913E
:10011000089584E486BF0E9471008036E1F784EC84
:1001200086BF0E946D000E947100803811F483B177
:10013000089580E0089580918900882389F40E94C1
:10014000D20180E060E00E94850180E690E00E949C
:100150000B020E9449000E94410281E080938900C5
:1001600080E00E944E0096958795019790938C00B1
:1001700080938B000E941A0282E390E00E945B024F
:10018000089580918800882339F40E942E020E94ED
:10019000580081E0809388000E945B0080938A0071
:1001A000882381F480917D00882379F080918600F6
:1001B000909187000196909387008093860010921B
:1001C0007D0003C081E080937D0080918600909146
:1001D00087008930910520F01092870010928600E8
:1001E000809186008770880F880F982F990F990F3C
:1001F000890F0E94350281E060E00E9485018EE651
:1002000090E00E940B0280918600909187000E94EE
:100210001A0285E090E00E945B0280E06DE00E949F
:1002200085010895CF93DF9300D000D0CDB7DEB71E
:100230000E94890280E090E061E00E945E0081E01F
:1002400090E062E00E945E0082E090E063E00E9445
:100250005E0083E090E064E00E945E004E0108943E
:10026000811C911C0F2EF5E0AF2EBB24F02DAC0E9F
:10027000BD1E582C492C7724689471F8672C6401B2
:10028000E52CF42C0E94B3028053F70181937F0187
:10029000EA15FB05B9F7EE24FF2400E0F601119101
:1002A0006F01C7010E9466001813062D0894E11C17
:1002B000F11CF4E0EF16F10489F7023021F081E03F
:1002C0000E94AF0204C0872D0E94AF02D8CF0E94C7
:1002D0009B000E94C100FBCF982F907F9BBB98B3DF
:1002E000917F98BBC39A98B3917F98BB8295807F8A
:1002F0008BBB88B3817F88BBC39A88B3817F88BB5F
:1003000088E290E00E9444020895823050F4603107
:1003100040F48111605C862F805880937E000E949B
:100320006C010895C298C19A982F907F9BBBC39887
:10033000C39AC3988295807F8BBBC398C39AC39896
:1003400088E290E00E94440280917E00982F9F5F97
:1003500090937E008E58813340F480EC80937E0031
:1003600081E060E00E94850108959F3C38F080E8BC
:1003700080937E0080E060E00E948501089580E81F
:1003800080937E0081E00E946C0180E496E00E94F0
:10039000440280E060E00E94850180E496E00E94D3
:1003A000440208958AB3806F8ABB87B38E6087BB8F
:1003B0000E9441028FE090E00E945B0283E00E9475
:1003C0006C0184E090E00E945B0283E00E946C017B
:1003D00084E690E00E94440283E00E946C0182E087
:1003E0000E946C0188E20E946C0188E00E946C010E
:1003F0000E94BF0186E00E946C0180E80E946C01AF
:100400008EE00E946C0180E10E946C0180E060E05F
:100410000E9485010895CF93DF93EC0188818823A2
:1004200031F021960E94920189918823D9F7DF91BA
:10043000CF910895CF93DF938A30910548F06AE019
:1004400070E00E94CB02D82FCB010E941A028D2FA0
:10045000805D0E949201DF91CF9108958F9A85B5BA
:10046000866685BD8AE083BD0895282F30E0922FEF
:100470008827821B930B64E670E00E94DF0263BD55
:10048000089582E083BF089512BE492F5527411574
:10049000510551F020E030E062B76F3FE9F72F5F80
:1004A0003F4F24173507C1F7907022B730E082170D
:1004B0009307D8F708958F929F92AF92BF92CF92F1
:1004C000DF92EF92FF926C01CC0CDD1CCC0CDD1C9A
:1004D000EE24FF24C114D104E104F10489F088243E
:1004E000992454018AEF90E00E9444020894811CF0
:1004F000911CA11CB11C8C149D04AE04BF0490F38C
:10050000FF90EF90DF90CF90BF90AF909F908F9033
:10051000089520917F00309180004091810050919A
:10052000820060E271EA87E090E00E94F2022150CE
:10053000304030BD29B988E18AB92AB18091830061
:10054000982F969596959695990F990F922B9AB903
:100550009091840090688777892B80BD08955D9B7A
:10056000FECF8CB908955F9BFECF8CB10895CF93D9
:10057000DF938A30910548F06AE070E00E94CB0278
:10058000D82FCB010E94B7028D2F805D0E94AF0251
:10059000DF91CF910895AA1BBB1B51E107C0AA1F91
:1005A000BB1FA617B70710F0A61BB70B881F991F14
:1005B0005A95A9F780959095BC01CD01089597FBB8
:1005C000092E07260AD077FD04D0E5DF06D00020EB
:1005D0001AF4709561957F4F0895F6F7909581957F
:1005E0009F4F0895A1E21A2EAA1BBB1BFD010DC04F
:1005F000AA1FBB1FEE1FFF1FA217B307E407F507D3
:1006000020F0A21BB30BE40BF50B661F771F881FAE
:10061000991F1A9469F760957095809590959B0144
:0C062000AC01BD01CF010895F894FFCF9C
:10062C0054656D7065726174757265203D004D6F17
:10063C00746F72205370656564203D20000180004A
:06064C009600000600000C
:00000001FF
