:100000000C942A000C94B7000C9447000C94470001
:100010000C9447000C9447000C9447000C94470044
:100020000C9447000C9447000C9447000C94470034
:100030000C9447000C9447000C9447000C94470024
:100040000C9447000C9447000C9447000C94470014
:100050000C94470011241FBECFE5D8E0DEBFCDBF12
:1000600010E0A0E6B0E0EAEFF5E002C005900D92E6
:10007000A439B107D9F710E0A4E9B0E001C01D929E
:10008000A939B107E1F70E94FA000C94FB020C9425
:10009000000080E487B986E886B9089597B1877033
:1000A000982B97B9369A3699FECF84B195B10895B9
:1000B000E199FECF9FBB8EBB6DBBE29AE19A08959A
:1000C000E199FECF9FBB8EBBE09A8DB308958093DC
:1000D0009600823051F081E0809396000E94960253
:1000E0008091960080939500089582E00E94960288
:1000F00080919600809395001092960008950E943A
:10010000B9010E9449000E94280280E060E00E943C
:100110006C0180E690E00E94F201089580E060E0CA
:100120000E946C0180E690E00E94F20180E00E9453
:100130004E0096958795019790939800809397002D
:100140000E9401028DE690E00E94F20185E090E0BD
:100150000E94420208958FB780688FBF85B7826082
:1001600085BF8BB780648BBF8A98879808951F924C
:100170000F920FB60F9211242F933F934F935F93DB
:100180006F937F938F939F93AF93BF93EF93FF935F
:1001900080E00E941C0281E060E00E946C018FE61A
:1001A00090E00E94F20185E090E00E944202FF91FF
:1001B000EF91BF91AF919F918F917F916F915F91DF
:1001C0004F913F912F910F900FBE0F901F90189558
:1001D0000E9415028AE50E941C0281E060E00E94F4
:1001E0006C018DE790E00E94F20185E090E00E94B2
:1001F00042020895CF93DF9300D000D0CDB7DEB791
:100200000E94700280E090E061E00E94580081E06E
:1002100090E062E00E94580082E090E063E00E947B
:10022000580083E090E064E00E94580010E002E093
:100230000DC00E949A02E1E0F0E0EC0FFD1FE10F1B
:10024000F11D805380831F5F01C010E0143088F3DC
:100250006E010894C11CD11CEE24FF24F6011191FB
:100260006F01C7010E946000181711F000939600FB
:100270000894E11CF11CF4E0EF16F10479F7809189
:1002800096000E946700809195008130F1F60E94EF
:100290007F000E94AB000E94E80083E00E9496026B
:1002A0000E948E00FDCF982F907F9BBB98B3917FCB
:1002B00098BBC39A98B3917F98BB8295807F8BBB84
:1002C00088B3817F88BBC39A88B3817F88BB88E26B
:1002D00090E00E942B020895823050F4603140F487
:1002E0008111605C862F805880938C000E9453019E
:1002F0000895C298C19A982F907F9BBBC398C39AC8
:10030000C3988295807F8BBBC398C39AC39888E2B9
:1003100090E00E942B0280918C00982F9F5F909319
:100320008C008E58813340F480EC80938C0081E007
:1003300060E00E946C0108959F3C38F080E8809353
:100340008C0080E060E00E946C01089580E880935A
:100350008C0081E00E94530180E496E00E942B0211
:1003600080E060E00E946C0180E496E00E942B0235
:1003700008958AB3806F8ABB87B38E6087BB0E9463
:1003800028028FE090E00E94420283E00E94530125
:1003900084E090E00E94420283E00E94530184E6E0
:1003A00090E00E942B0283E00E94530182E00E94B1
:1003B000530188E20E94530188E00E9453010E9489
:1003C000A60186E00E94530180E80E9453018EE05E
:1003D0000E94530180E10E94530180E060E00E948E
:1003E0006C010895CF93DF93EC018881882331F06D
:1003F00021960E94790189918823D9F7DF91CF91C5
:100400000895CF93DF938A30910548F06AE070E059
:100410000E94B202D82FCB010E9401028D2F805D75
:100420000E947901DF91CF9108958F9A85B58666F4
:1004300085BD8AE083BD0895282F30E0922F88275C
:10044000821B930B64E670E00E94C60263BD0895B0
:1004500082E083BF089512BE492F552741155105EB
:1004600051F020E030E062B76F3FE9F72F5F3F4F78
:1004700024173507C1F7907022B730E08217930731
:10048000D8F708958F929F92AF92BF92CF92DF924A
:10049000EF92FF926C01CC0CDD1CCC0CDD1CEE2429
:1004A000FF24C114D104E104F10489F088249924C3
:1004B00054018AEF90E00E942B020894811C911C49
:1004C000A11CB11C8C149D04AE04BF0490F3FF90DA
:1004D000EF90DF90CF90BF90AF909F908F90089556
:1004E00020918D0030918E0040918F0050919000AE
:1004F00060E271EA87E090E00E94D902215030402A
:1005000030BD29B988E18AB92AB180919100982F2C
:10051000969596959695990F990F922B9AB99091D9
:10052000920090688777892B80BD08955D9BFECFF0
:100530008CB908955F9BFECF8CB10895CF93DF9364
:100540008A30910548F06AE070E00E94B202D82F2C
:10055000CB010E949E028D2F805D0E949602DF914A
:10056000CF910895AA1BBB1B51E107C0AA1FBB1F57
:10057000A617B70710F0A61BB70B881F991F5A952F
:10058000A9F780959095BC01CD01089597FB092EA0
:1005900007260AD077FD04D0E5DF06D000201AF444
:1005A000709561957F4F0895F6F7909581959F4FCF
:1005B0000895A1E21A2EAA1BBB1BFD010DC0AA1FA4
:1005C000BB1FEE1FFF1FA217B307E407F50720F0BC
:1005D000A21BB30BE40BF50B661F771F881F991F37
:1005E0001A9469F760957095809590959B01AC0180
:0A05F000BD01CF010895F894FFCF7C
:1005FA0054656D70657261747572653D00630020A3
:10060A004D6F746F72204973204F46460020202098
:10061A004D6F746F72204F4E2E2E20008000960070
:04062A0000060000C6
:00000001FF
