S01700004763634170706C69636174696F6E342E7372656358
S11300000C942A000C94C1000C9447000C944700F3
S11300100C9447000C9447000C9447000C94470040
S11300200C9447000C9447000C9447000C94470030
S11300300C9447000C9447000C9447000C94470020
S11300400C9447000C9447000C9447000C94470010
S11300500C94470011241FBECFE5D8E0DEBFCDBF0E
S113006010E0A0E6B0E0E4ECF1E002C005900D92EF
S1130070A036B107D9F710E0A0E6B0E001C01D92A8
S1130080A036B107E1F70E94CC000C94E0000C9478
S11300900000813089F0813028F08230B9F083305B
S11300A041F51EC08AB3942F909589238ABB8AB3E5
S11300B06423682B6ABB089587B3942F9095892392
S11300C087BB87B36423682B67BB089584B3942FDD
S11300D09095892384BB84B36423682B64BB0895FF
S11300E081B3942F9095892381BB81B36423682BBA
S11300F061BB0895813089F0813028F08230B9F0F5
S1130100833041F51EC08BB3942F909589238BBB0C
S11301108BB36423682B6BBB089588B3942F90959D
S1130120892388BB88B36423682B68BB089585B38F
S1130130942F9095892385BB85B36423682B65BB75
S1130140089581B3942F9095892381BB81B364234F
S1130150682B61BB0895813051F0813028F08230E2
S113016049F0833061F409C099B3962308C096B36B
S1130170962305C093B3962302C090B39623892F88
S113018008951F920F920FB60F921124979A0F9011
S11301900FBE0F901F9018958FB780688FBF85B7DB
S11301A0826085BF8BB780648BBF81B364E044E019
S11301B00E94490081B360E840E80E944900FFCFF3
S10701C0F894FFCFDD
S9030000FC
