S01700004763634170706C69636174696F6E352E7372656357
S11300000C942A000C9447000C9447000C9447006D
S11300100C9447000C9447000C9447000C94470040
S11300200C9447000C9447000C9449000C94540021
S11300300C9447000C9447000C9447000C94470020
S11300400C9447000C9447000C9447000C94470010
S11300500C94470011241FBECFE5D8E0DEBFCDBF0E
S113006010E0A0E6B0E0E0EEF0E002C005900D92F2
S1130070A036B107D9F710E0A0E6B0E001C01D92A8
S1130080A036B107E1F70E945F000C946E000C9457
S113009000001F920F920FB60F921124969A0F90A0
S11300A00FBE0F901F9018951F920F920FB60F92CC
S11300B01124979A0F900FBE0F901F90189581B33B
S11300C0806C81BB83B7826083BF1CBE12BE8FB7B6
S11300D080688FBF89B7836089BFFFCFF894FFCF53
S9030000FC
