:100000000C942A000C9447000C9447000C94470071
:100010000C9447000C9447000C9447000C94470044
:100020000C9447000C9447000C9447000C94470034
:100030000C9447000C9447000C9447000C94470024
:100040000C9447000C9447000C9447000C94470014
:100050000C94470011241FBECFE5D8E0DEBFCDBF12
:1000600010E0A0E6B0E0E2EFF8E002C005900D92EB
:10007000A43EB107D9F710E0A4EEB0E001C01D9294
:10008000AF3EB107E1F70E94FE020C9477040C9496
:10009000000083E060E041E00E94CB001092E400A9
:1000A00083E060E042E00E94CB001092E50083E034
:1000B00060E044E00E94CB001092E60008957F9239
:1000C0008F929F92AF92BF92CF92DF92EF92FF9268
:1000D0000F931F93CF93DF93C4EED0E0EE24FF2461
:1000E00000E0AA24BB24A3948824839477246894F2
:1000F00071F899241E2D65010E2C02C0CC0CDD1C5C
:100100000A94E2F783E06C2D0E942D0198819130D2
:1001100079F0913018F09230E1F414C090E0C816F4
:10012000D90619F48882892D17C01882892D14C028
:1001300090E0C816D90619F47882882D0DC018826F
:10014000882D0AC090E0C816D90629F01882892D9A
:1001500003C0892D01C0892D90E002C0880F991F2E
:100160001A95E2F7082B0894E11CF11C219683E014
:10017000E816F10409F0BECF802FDF91CF911F91D7
:100180000F91FF90EF90DF90CF90BF90AF909F9036
:100190008F907F900895813089F0813028F08230EF
:1001A000B9F0833041F51EC08AB3942F909589230E
:1001B0008ABB8AB36423682B6ABB089587B3942FE4
:1001C0009095892387BB87B36423682B67BB089509
:1001D00084B3942F9095892384BB84B36423682BC4
:1001E00064BB089581B3942F9095892381BB81B31B
:1001F0006423682B61BB0895813089F0813028F039
:100200008230B9F0833041F51EC08BB3942F9095A6
:1002100089238BBB8BB36423682B6BBB089588B396
:10022000942F9095892388BB88B36423682B68BB7F
:10023000089585B3942F9095892385BB85B3642356
:10024000682B65BB089582B3942F9095892382BB58
:1002500082B36423682B62BB0895813051F08130F2
:1002600028F0823049F0833069F409C089B38623CD
:10027000089586B38623089583B38623089580B3B3
:100280008623089580E00895E199FECF9FBB8EBB41
:100290006DBBE29AE19A0895E199FECF9FBB8EBBB8
:1002A000E09A8DB3089506B607FEFDCF089584E861
:1002B00086BF089581B1887F089581E080B981B1BA
:1002C0008C7F81B90895CF93DF93C82FD62F84EA0E
:1002D00086BF0E9453010E945A018830C9F4C3B9F5
:1002E0000E9457010E9453010E945A01883191F4E3
:1002F000D3B90E9457010E9453010E945A018832CB
:1003000059F484E986BF06B604FCFDCF81E005C040
:100310008FEF03C08FEF01C08FEFDF91CF91089572
:10032000CF93C82F84EA86BF0E9453010E945A01CE
:100330008830C9F4CF5FC3B90E9457010E945301AE
:100340000E945A01803489F40E9457010E9453018F
:100350000E945A01883559F483B194E996BF06B6D4
:1003600004FCFDCF05C08FEF03C08FEF01C08FEFFE
:10037000CF91089582E060E047E00E94CB0082E0E8
:100380006FEF40EF0E94CB0082E060E040EF0E9400
:10039000FC000895EF92FF920F931F93CF9360E1BB
:1003A00000E010E0C0E00F2EF0E6EF2EF0E0FF2EB0
:1003B000F02D82E040EF0E94CB0082E067E00E94D7
:1003C0002D0180FD2CC004C081E003C082E001C08B
:1003D00080E0F801EE0FFF1FEE0FFF1FE05AFF4F06
:1003E000E80FF11DC18182E067E00E942D01873096
:1003F000D1F70EC0CF5F0C2F10E0F801EE0FFF1FFA
:10040000EE0FFF1FEE0DFF1D6081662391F6C0E029
:100410008C2FCF911F910F91FF90EF9008958695AB
:1004200080FFD2CF869580FDE5CFD0CF982F907FEB
:100430009BBB98B3917F98BBC39A98B3917F98BBAD
:100440008295807F8BBB88B3817F88BBC39A88B33A
:10045000817F88BB88E290E00E94BA0308958230D1
:1004600050F4603140F48111605C862F8058809395
:1004700074000E9416020895C298C19A982F907F26
:100480009BBBC398C39AC3988295807F8BBBC3984C
:10049000C39AC39888E290E00E94BA0380917400E6
:1004A000982F9F5F909374008E58813340F480ECB6
:1004B0008093740081E060E00E942F0208959F3CC9
:1004C00038F080E88093740080E060E00E942F02A2
:1004D000089580E88093740081E00E94160280E411
:1004E00096E00E94BA0380E060E00E942F0280E460
:1004F00096E00E94BA0308958AB3806F8ABB87B3DF
:100500008E6087BB0E94B7038FE090E00E94D1030A
:1005100083E00E94160284E090E00E94D10383E011
:100520000E94160284E690E00E94BA0383E00E94D3
:10053000160282E00E94160288E20E94160288E0FB
:100540000E9416020E94690286E00E94160280E85C
:100550000E9416028EE00E94160280E10E9416029E
:1005600080E060E00E942F020895CF93DF93EC01BA
:100570008881882331F021960E943C02899188234A
:10058000D9F7DF91CF910895E091E800F0E0E551CF
:10059000FF4F80838AE20E943C028091E8008F5FD7
:1005A0008093E80008950F931F93CF93DF93CBEED2
:1005B000D0E08E010C5F1F4F89910E942504C01767
:1005C000D107D1F70E9429048093EA00DF91CF91EF
:1005D0001F910F9108951092E8001092EA000E9476
:1005E000690280E060E00E942F0285E790E00E94AF
:1005F000B50281E067E00E942F0208950E94FF0388
:100600000E947C0280E060E00E942F0285E790E07B
:100610000E94B50281E067E00E942F020E94BA01A9
:1006200001ED10E0EE24FF240F2EF3EB6F2EF0E02F
:100630007F2EF02D0F2EF3EC4F2EF0E05F2EF02DDD
:100640000F2EF6E8CF2EF0E0DF2EF02D0F2EF6E97C
:10065000AF2EF0E0BF2EF02D0F2EF4EA8F2EF0E03B
:100660009F2EF02D0E94CA018093E900982F90538D
:100670009A3008F06FC00E94C4028091E800843074
:1006800008F46EC00E94D3028093EA008130F1F436
:100690000E94690280E060E00E942F02C6010E9471
:1006A000B50282E593E00E94D1030E94690280E0D6
:1006B00060E00E942F02C5010E94B50281E060E067
:1006C0000E942F02C4010E94B5021DC08230D9F4DD
:1006D0008091E7008F5F8093E7000E94690280E0CD
:1006E00060E00E942F02C3010E94B50281E060E039
:1006F0000E942F02C2010E94B50284EF91E00E9485
:10070000D1030E94EB028091E700833048F1109200
:10071000E7000E94690280E060E00E942F02C801A9
:100720000E94B5028091DD00882361F0E70188E82E
:1007300093E10E94D10321968091DD0090E0C817DB
:10074000D907ACF30E94EB028091DD008F5F8093AC
:10075000DD0006C08A3211F0833211F40E94EB02F0
:1007600083EC99E00197F1F700C000007BCF82E0B5
:1007700083BF089512BE492F55274115510551F0E9
:1007800020E030E062B76F3FE9F72F5F3F4F24175B
:100790003507C1F7907022B730E082179307D8F77A
:1007A00008958F929F92AF92BF92CF92DF92EF9275
:1007B000FF926C01CC0CDD1CCC0CDD1CEE24FF2464
:1007C000C114D104E104F10489F08824992454016E
:1007D0008AEF90E00E94BA030894811C911CA11C2E
:1007E000B11C8C149D04AE04BF0490F3FF90EF90F5
:1007F000DF90CF90BF90AF909F908F900895209101
:10080000DE003091DF004091E0005091E10060E2B5
:1008100071EA87E090E00E9455042150304030BDDD
:1008200029B988E18AB92AB18091E200982F96957A
:1008300096959695990F990F922B9AB99091E300FE
:1008400090688777892B80BD08955D9BFECF8CB91A
:1008500008955F9BFECF8CB10895CF93DF938A30CC
:10086000910548F06AE070E00E944104D82FCB0166
:100870000E942D048D2F805D0E942504DF91CF9171
:100880000895AA1BBB1B51E107C0AA1FBB1FA617D7
:10089000B70710F0A61BB70B881F991F5A95A9F729
:1008A00080959095BC01CD010895A1E21A2EAA1B56
:1008B000BB1BFD010DC0AA1FBB1FEE1FFF1FA21710
:1008C000B307E407F50720F0A21BB30BE40BF50B0D
:1008D000661F771F881F991F1A9469F76095709596
:1008E000809590959B01AC01BD01CF010895F894CE
:0208F000FFCF38
:1008F200103132332034353640373839802A3023AC
:100902000000000080456E74657220506173737739
:100912006F72643A2000436F727265637420506193
:100922007373203A29002020202057454C434F4D15
:10093200452E2E00202053797374656D2049732053
:100942004F6E00496E636F727265637420506173FB
:10095200732100202054727920616761696E2E2E06
:10096200002020202057414954494E47000100965B
:04097200000006007B
:00000001FF
