:100000000C942A000C9447000C9447000C94470071
:100010000C9447000C9447000C9447000C94470044
:100020000C9447000C9447000C9447000C94470034
:100030000C9447000C9447000C9447000C94470024
:100040000C9447000C9447000C9447000C94470014
:100050000C94470011241FBECFE5D8E0DEBFCDBF12
:1000600010E0A0E6B0E0E8EFF8E002C005900D92E5
:10007000A43DB107D9F710E0A4EDB0E001C01D9296
:10008000A03EB107E1F70E9438030C947A040C9467
:10009000000083E060E041E00E94CB001092D400B9
:1000A00083E060E042E00E94CB001092D50083E044
:1000B00060E044E00E94CB001092D60008957F9249
:1000C0008F929F92AF92BF92CF92DF92EF92FF9268
:1000D0000F931F93CF93DF93C4EDD0E0EE24FF2462
:1000E00000E0AA24BB24A3948824839477246894F2
:1000F00071F899241E2D65010E2C02C0CC0CDD1C5C
:100100000A94E2F783E06C2D0E942D0198819130D2
:1001100079F0913018F09230E1F414C090E0C816F4
:10012000D90619F48882892D17C01882892D14C028
:1001300090E0C816D90619F47882882D0DC018826F
:10014000882D0AC090E0C816D90629F01882892D9A
:1001500003C0892D01C0892D90E002C0880F991F2E
:100160001A95E2F7082B0894E11CF11C219683E014
:10017000E816F10409F0BECF802FDF91CF911F91D7
:100180000F91FF90EF90DF90CF90BF90AF909F9036
:100190008F907F900895813089F0813028F08230EF
:1001A000B9F0833041F51EC08AB3942F909589230E
:1001B0008ABB8AB36423682B6ABB089587B3942FE4
:1001C0009095892387BB87B36423682B67BB089509
:1001D00084B3942F9095892384BB84B36423682BC4
:1001E00064BB089581B3942F9095892381BB81B31B
:1001F0006423682B61BB0895813089F0813028F039
:100200008230B9F0833041F51EC08BB3942F9095A6
:1002100089238BBB8BB36423682B6BBB089588B396
:10022000942F9095892388BB88B36423682B68BB7F
:10023000089585B3942F9095892385BB85B3642356
:10024000682B65BB089582B3942F9095892382BB58
:1002500082B36423682B62BB0895813051F08130F2
:1002600028F0823049F0833069F409C089B38623CD
:10027000089586B38623089583B38623089580B3B3
:100280008623089580E00895E199FECF9FBB8EBB41
:100290006DBBE29AE19A0895E199FECF9FBB8EBBB8
:1002A000E09A8DB3089506B607FEFDCF089584E861
:1002B00086BF089581B1887F089581E080B981B1BA
:1002C0008C7F81B90895CF93DF93C82FD62F84EA0E
:1002D00086BF0E9453010E945A018830C9F4C3B9F5
:1002E0000E9457010E9453010E945A01883191F4E3
:1002F000D3B90E9457010E9453010E945A018832CB
:1003000059F484E986BF06B604FCFDCF81E005C040
:100310008FEF03C08FEF01C08FEFDF91CF91089572
:10032000CF93C82F84EA86BF0E9453010E945A01CE
:100330008830C9F4CF5FC3B90E9457010E945301AE
:100340000E945A01803489F40E9457010E9453018F
:100350000E945A01883559F483B194E996BF06B6D4
:1003600004FCFDCF05C08FEF03C08FEF01C08FEFFE
:10037000CF91089582E060E047E00E94CB0082E0E8
:100380006FEF40EF0E94CB0082E060E040EF0E9400
:10039000FC000895EF92FF920F931F93CF9360E1BB
:1003A00000E010E0C0E00F2EF0E6EF2EF0E0FF2EB0
:1003B000F02D82E040EF0E94CB0082E067E00E94D7
:1003C0002D0180FD2CC004C081E003C082E001C08B
:1003D00080E0F801EE0FFF1FEE0FFF1FE05AFF4F06
:1003E000E80FF11DC18182E067E00E942D01873096
:1003F000D1F70EC0CF5F0C2F10E0F801EE0FFF1FFA
:10040000EE0FFF1FEE0DFF1D6081662391F6C0E029
:100410008C2FCF911F910F91FF90EF9008958695AB
:1004200080FFD2CF869580FDE5CFD0CF982F907FEB
:100430009BBB98B3917F98BBC39A98B3917F98BBAD
:100440008295807F8BBB88B3817F88BBC39A88B33A
:10045000817F88BB88E290E00E94BD0308958230CE
:1004600050F4603140F48111605C862F8058809395
:1004700074000E9416020895C298C19A982F907F26
:100480009BBBC398C39AC3988295807F8BBBC3984C
:10049000C39AC39888E290E00E94BD0380917400E3
:1004A000982F9F5F909374008E58813340F480ECB6
:1004B0008093740081E060E00E942F0208959F3CC9
:1004C00038F080E88093740080E060E00E942F02A2
:1004D000089580E88093740081E00E94160280E411
:1004E00096E00E94BD0380E060E00E942F0280E45D
:1004F00096E00E94BD0308958AB3806F8ABB87B3DC
:100500008E6087BB0E94BA038FE090E00E94D40304
:1005100083E00E94160284E090E00E94D40383E00E
:100520000E94160284E690E00E94BD0383E00E94D0
:10053000160282E00E94160288E20E94160288E0FB
:100540000E9416020E94690286E00E94160280E85C
:100550000E9416028EE00E94160280E10E9416029E
:1005600080E060E00E942F020895CF93DF93EC01BA
:100570008881882331F021960E943C02899188234A
:10058000D9F7DF91CF9108951092D8001092DA0038
:100590000E94690280E060E00E942F0285E790E0FF
:1005A0000E94B50281E067E00E942F020895E09169
:1005B000D800F0E0E452FF4F80838AE20E943C02C0
:1005C0008091D8008F5F8093D80008950F931F9378
:1005D000CF93DF93CCEDD0E08E010C5F1F4F89915C
:1005E0000E942804C017D107D1F70E942C048093E1
:1005F000DA00DF91CF911F910F9108950E94690257
:1006000080E060E00E942F0286E890E00E94B50240
:1006100084EF91E00E94D40381E060E00E942F0209
:1006200084E990E00E94B502979808958091D700E0
:100630008F5F8093D7000E94690280E060E00E9493
:100640002F0283EA90E00E94B50284EF91E00E94BD
:10065000D40381E060E00E942F0283EB90E00E94CF
:10066000B50284EF91E00E94D4030E94C402089571
:100670000E9402040E947C0280E060E00E942F023F
:1006800085E790E00E94B50281E067E00E942F02BA
:100690000E94BA018F9A979801EC10E0EE24FF2493
:1006A0000E94CA018093D900982F90539A30D0F5B8
:1006B0000E94D7028091D8008430D0F10E94E602D7
:1006C0008093DA00813019F40E94FE0204C0823067
:1006D00011F40E9416038091D700833048F11092E4
:1006E000D7000E94690280E060E00E942F02C801EA
:1006F0000E94B5028091CD00882361F0E70188E86F
:1007000093E10E94D40321968091CD0090E0C81718
:10071000D907ACF30E94C4028091CD008F5F809313
:10072000CD0006C08A3211F0833211F40E94C40257
:1007300083EC99E00197F1F700C000008091DA00A6
:10074000813021F40E942C048093DB008091DB0037
:10075000833009F0A5CF88E893E10E94D403979AEB
:1007600080E991E00E94D40397981092DB001092E8
:10077000DA0096CF82E083BF089512BE492F552735
:100780004115510551F020E030E062B76F3FE9F7C5
:100790002F5F3F4F24173507C1F7907022B730E025
:1007A00082179307D8F708958F929F92AF92BF92C6
:1007B000CF92DF92EF92FF926C01CC0CDD1CCC0C3F
:1007C000DD1CEE24FF24C114D104E104F10489F0FE
:1007D0008824992454018AEF90E00E94BD03089474
:1007E000811C911CA11CB11C8C149D04AE04BF047F
:1007F00090F3FF90EF90DF90CF90BF90AF909F90DD
:100800008F9008952091CE003091CF004091D0007C
:100810005091D10060E271EA87E090E00E945804B4
:100820002150304030BD29B988E18AB92AB1809180
:10083000D200982F969596959695990F990F922B91
:100840009AB99091D30090688777892B80BD0895DD
:100850005D9BFECF8CB908955F9BFECF8CB1089550
:10086000CF93DF938A30910548F06AE070E00E94F0
:100870004404D82FCB010E9430048D2F805D0E944C
:100880002804DF91CF910895AA1BBB1B51E107C03B
:10089000AA1FBB1FA617B70710F0A61BB70B881F10
:1008A000991F5A95A9F780959095BC01CD0108959F
:1008B000A1E21A2EAA1BBB1BFD010DC0AA1FBB1F64
:1008C000EE1FFF1FA217B307E407F50720F0A21BD6
:1008D000B30BE40BF50B661F771F881F991F1A9443
:1008E00069F760957095809590959B01AC01BD016D
:0808F000CF010895F894FFCF39
:1008F800103132332034353640373839802A3023A6
:100908000000000080456E746572205468652050B0
:10091800696E203A20002020202057454C434F4D37
:10092800452E2E00202053797374656D204973205D
:100938004F6E00496E636F72726563742050617305
:10094800732100202054727920616761696E2E2E10
:10095800002020202057414954494E470001009665
:040968000000060085
:00000001FF
