:100000000C942A000C94D9000C9447000C944700DF
:100010000C9447000C9447000C9447000C94470044
:100020000C9447000C9447000C9447000C94470034
:100030000C9447000C9447000C9447000C94470024
:100040000C9447000C9447000C9447000C94470014
:100050000C94470011241FBECFE5D8E0DEBFCDBF12
:1000600010E0A0E6B0E0E6E4F6E002C005900D92F4
:10007000AE38B107D9F710E0AEE8B0E001C01D928C
:10008000A239B107E1F70E941C010C9421030C94E2
:10009000000080E487B986E886B9089597B1877033
:1000A000982B97B9369A3699FECF84B195B10895B9
:1000B000E199FECF9FBB8EBB6DBBE29AE19A08959A
:1000C000E199FECF9FBB8EBBE09A8DB3089506B633
:1000D00007FEFDCF089581B1887F089580E282B93F
:1000E0000895CF93C82F84E486BF0E946B00883A9E
:1000F000E1F7C3B984E886BF0E9467000E946B00E5
:100100008FEFCF91089584E486BF0E946B00803604
:10011000E1F784EC86BF0E9467000E946B00803884
:1001200011F483B1089580E00895823039F081E0C0
:100130000E94BC0281E080938F00089582E00E94BB
:10014000BC0282E080938F0008950E94DF010E942C
:1001500049000E944E0280E060E00E94920180E629
:1001600090E00E941802089580E060E00E949201F1
:1001700080E690E00E94180280E00E944E00969572
:100180008795019790939100809390000E94270299
:1001900082E390E00E94680208958FB780688FBF65
:1001A00085B7826085BF8BB780648BBF8A9887983C
:1001B00008951F920F920FB60F9211242F933F9321
:1001C0004F935F936F937F938F939F93AF93BF935F
:1001D000EF93FF9380E00E94420281E060E00E9482
:1001E00092018EE690E00E94180285E090E00E9465
:1001F0006802FF91EF91BF91AF919F918F917F9195
:100200006F915F914F913F912F910F900FBE0F9083
:100210001F9018950E943B028AE50E94420281E0ED
:1002200060E00E9492018BE790E00E94180285E056
:1002300090E00E9468020895CF93DF9300D000D031
:10024000CDB7DEB70E94960280E090E061E00E94A8
:10025000580081E090E062E00E94580082E090E067
:1002600063E00E94580083E090E064E00E94580040
:1002700000E04E010894811C911C0F2EF5E0AF2E7A
:10028000BB24F02DAC0EBD1E682C592C772468942D
:1002900071F86401E62CF52C0E94C0028053F7012E
:1002A00081937F01EA15FB05B9F7EE24FF24F601DF
:1002B00011916F01C7010E9460001813072D089467
:1002C000E11CF11CF4E0EF16F10489F7802F0E9485
:1002D000950080918F008130E1F60E94A5000E9478
:1002E000CD000E940A0183E00E94BC020E94B4007B
:1002F000FDCF982F907F9BBB98B3917F98BBC39AFB
:1003000098B3917F98BB8295807F8BBB88B3817FA8
:1003100088BBC39A88B3817F88BB88E290E00E9443
:1003200051020895823050F4603140F48111605CD4
:10033000862F8058809387000E9479010895C29883
:10034000C19A982F907F9BBBC398C39AC3988295FC
:10035000807F8BBBC398C39AC39888E290E00E94C9
:10036000510280918700982F9F5F909387008E584D
:10037000813340F480EC8093870081E060E00E944C
:10038000920108959F3C38F080E88093870080E0D8
:1003900060E00E949201089580E88093870081E0E8
:1003A0000E94790180E496E00E94510280E060E0C2
:1003B0000E94920180E496E00E94510208958AB35F
:1003C000806F8ABB87B38E6087BB0E944E028FE02E
:1003D00090E00E94680283E00E94790184E090E04E
:1003E0000E94680283E00E94790184E690E00E9406
:1003F000510283E00E94790182E00E94790188E243
:100400000E94790188E00E9479010E94CC0186E077
:100410000E94790180E80E9479018EE00E947901B2
:1004200080E10E94790180E060E00E9492010895DD
:10043000CF93DF93EC018881882331F021960E94CD
:100440009F0189918823D9F7DF91CF910895CF93A8
:10045000DF938A30910548F06AE070E00E94D8028C
:10046000D82FCB010E9427028D2F805D0E949F0113
:10047000DF91CF9108958F9A85B5866685BD8AE014
:1004800083BD0895282F30E0922F8827821B930B7D
:1004900064E670E00E94EC0263BD089582E083BFD1
:1004A000089512BE492F55274115510551F020E0FE
:1004B00030E062B76F3FE9F72F5F3F4F24173507F2
:1004C000C1F7907022B730E082179307D8F70895EC
:1004D0008F929F92AF92BF92CF92DF92EF92FF9254
:1004E0006C01CC0CDD1CCC0CDD1CEE24FF24C114F3
:1004F000D104E104F10489F08824992454018AEF9D
:1005000090E00E9451020894811C911CA11CB11C16
:100510008C149D04AE04BF0490F3FF90EF90DF9025
:10052000CF90BF90AF909F908F90089520918800BA
:100530003091890040918A0050918B0060E271EA0D
:1005400087E090E00E94FF022150304030BD29B981
:1005500088E18AB92AB180918C00982F969596955A
:100560009695990F990F922B9AB990918D0090685A
:100570008777892B80BD08955D9BFECF8CB9089548
:100580005F9BFECF8CB10895CF93DF938A309105A6
:1005900048F06AE070E00E94D802D82FCB010E9498
:1005A000C4028D2F805D0E94BC02DF91CF9108951F
:1005B000AA1BBB1B51E107C0AA1FBB1FA617B70789
:1005C00010F0A61BB70B881F991F5A95A9F78095A5
:1005D0009095BC01CD01089597FB092E07260AD0FE
:1005E00077FD04D0E5DF06D000201AF47095619500
:1005F0007F4F0895F6F7909581959F4F0895A1E25A
:100600001A2EAA1BBB1BFD010DC0AA1FBB1FEE1F8C
:10061000FF1FA217B307E407F50720F0A21BB30BD7
:10062000E40BF50B661F771F881F991F1A9469F753
:1006300060957095809590959B01AC01BD01CF01AF
:060640000895F894FFCFBD
:1006460054656D7065726174757265203D00202079
:100656004D6F746F72204F4646200020204D6F74F8
:0E0666006F72204F4E200080009600000600AC
:00000001FF
