:100000000C942A000C9447000C9447000C94470071
:100010000C9447000C9447000C9447000C94470044
:100020000C9447000C9447000C9447000C94470034
:100030000C9447000C9447000C9447000C94470024
:100040000C9447000C9447000C9447000C94470014
:100050000C94470011241FBECFE5D8E0DEBFCDBF12
:1000600010E0A0E6B0E0ECEFF5E002C005900D92E4
:10007000AE38B107D9F710E0AEE8B0E001C01D928C
:10008000A339B107E1F70E94EC000C94FC020C9438
:10009000000080E487B986E886B9089597B1877033
:1000A000982B97B9369A3699FECF84B195B10895B9
:1000B000E199FECF9FBB8EBB6DBBE29AE19A08959A
:1000C000E199FECF9FBB8EBBE09A8DB3089506B633
:1000D00007FEFDCF089581B1887F089580E282B93F
:1000E0000895CF93C82F84E486BF0E946B00883A9E
:1000F000E1F7C3B984E886BF0E9467000E946B00E5
:100100008FEFCF91089584E486BF0E946B00803604
:10011000E1F784EC86BF0E9467000E946B00803884
:1001200011F483B1089580E00895809190008823B0
:1001300089F40E94BA0180E060E00E946D0180E6CF
:1001400090E00E94F3010E9449000E94290281E090
:100150008093900080E00E944E00969587950197CD
:1001600090939200809391000E94020282E390E0BB
:100170000E944302089580918F008823A1F40E9479
:1001800016028AE50E941D028EE690E00E94F301AD
:1001900085E090E00E94430281E060E00E946D01F2
:1001A00081E080938F0080918E00813081F480E027
:1001B0000E941D028AE790E00E94F30185E090E032
:1001C0000E94430280918E008F5F80938E0080E0BA
:1001D0006DE00E946D010895CF93DF9300D000D0B1
:1001E000CDB7DEB70E94710280E090E061E00E942E
:1001F000580081E090E062E00E94580082E090E0C8
:1002000063E00E94580083E090E064E00E945800A0
:100210004E010894811C911C0F2EF5E0AF2EBB24DB
:10022000F02DAC0EBD1E582C492C7724689471F823
:10023000672C6401052D142D0E949B028053F80148
:1002400081938F01EA15FB05B9F7EE24FF2400E046
:10025000F60111916F01C7010E9460001813062D6D
:100260000894E11CF11CF4E0EF16F10489F7023068
:1002700051F081E00E94970200E010E0DD24D39469
:10028000EE24FF240AC0872D0E949702D2CF0E943D
:1002900095000E94BB000F5F1F4F02331105BCF396
:1002A000D0928E008701F9CF982F907F9BBB98B397
:1002B000917F98BBC39A98B3917F98BB8295807FBA
:1002C0008BBB88B3817F88BBC39A88B3817F88BB8F
:1002D00088E290E00E942C020895823050F4603150
:1002E00040F48111605C862F8058809387000E94C3
:1002F00054010895C298C19A982F907F9BBBC398D0
:10030000C39AC3988295807F8BBBC398C39AC398C6
:1003100088E290E00E942C0280918700982F9F5FD6
:10032000909387008E58813340F480EC809387004F
:1003300081E060E00E946D0108959F3C38F080E804
:100340008093870080E060E00E946D01089580E85E
:100350008093870081E00E94540180E496E00E942F
:100360002C0280E060E00E946D0180E496E00E9433
:100370002C0208958AB3806F8ABB87B38E6087BBD7
:100380000E9429028FE090E00E94430283E00E94D5
:10039000540184E090E00E94430283E00E945401F3
:1003A00084E690E00E942C0283E00E94540182E0E7
:1003B0000E94540188E20E94540188E00E94540186
:1003C0000E94A70186E00E94540180E80E94540127
:1003D0008EE00E94540180E10E94540180E060E0C0
:1003E0000E946D010895CF93DF93EC0188818823EB
:1003F00031F021960E947A0189918823D9F7DF9103
:10040000CF910895CF93DF938A30910548F06AE049
:1004100070E00E94B302D82FCB010E9402028D2F00
:10042000805D0E947A01DF91CF9108958F9A85B502
:10043000866685BD8AE083BD0895282F30E0922F1F
:100440008827821B930B64E670E00E94C70263BD9D
:10045000089582E083BF089512BE492F55274115A4
:10046000510551F020E030E062B76F3FE9F72F5FB0
:100470003F4F24173507C1F7907022B730E082173D
:100480009307D8F708958F929F92AF92BF92CF9221
:10049000DF92EF92FF926C01CC0CDD1CCC0CDD1CCA
:1004A000EE24FF24C114D104E104F10489F088246E
:1004B000992454018AEF90E00E942C020894811C38
:1004C000911CA11CB11C8C149D04AE04BF0490F3BC
:1004D000FF90EF90DF90CF90BF90AF909F908F9064
:1004E0000895209188003091890040918A005091B0
:1004F0008B0060E271EA87E090E00E94DA0221500E
:10050000304030BD29B988E18AB92AB180918C0088
:10051000982F969596959695990F990F922B9AB933
:1005200090918D0090688777892B80BD08955D9BA1
:10053000FECF8CB908955F9BFECF8CB10895CF9309
:10054000DF938A30910548F06AE070E00E94B302C0
:10055000D82FCB010E949F028D2F805D0E949702B1
:10056000DF91CF910895AA1BBB1B51E107C0AA1FC1
:10057000BB1FA617B70710F0A61BB70B881F991F44
:100580005A95A9F780959095BC01CD01089597FBE8
:10059000092E07260AD077FD04D0E5DF06D000201B
:1005A0001AF4709561957F4F0895F6F790958195AF
:1005B0009F4F0895A1E21A2EAA1BBB1BFD010DC07F
:1005C000AA1FBB1FEE1FFF1FA217B307E407F50703
:1005D00020F0A21BB30BE40BF50B661F771F881FDF
:1005E000991F1A9469F760957095809590959B0175
:0C05F000AC01BD01CF010895F894FFCFCD
:1005FC0054656D7065726174757265203D002020C4
:10060C004D6F746F72204F4E200020204D6F746F11
:0E061C0072204F464620008000960000060027
:00000001FF
