:100000000C942A000C9447000C9447000C94470071
:100010000C9447000C9447000C9447000C94470044
:100020000C9447000C9447000C9447000C94470034
:100030000C9447000C9447000C9447000C94470024
:100040000C9447000C9447000C9447000C94470014
:100050000C94470011241FBECFE5D8E0DEBFCDBF12
:1000600010E0A0E6B0E0EEE0F8E002C005900D92EE
:10007000A43DB107D9F710E0A4EDB0E001C01D9296
:10008000A03EB107E1F70E94EE020C9405040C9427
:10009000000083E060E041E00E94CB001092D400B9
:1000A00083E060E042E00E94CB001092D50083E044
:1000B00060E044E00E94CB001092D60008957F9249
:1000C0008F929F92AF92BF92CF92DF92EF92FF9268
:1000D0000F931F93CF93DF93C4EDD0E0EE24FF2462
:1000E00000E0AA24BB24A3948824839477246894F2
:1000F00071F899241E2D65010E2C02C0CC0CDD1C5C
:100100000A94E2F783E06C2D0E942D0198819130D2
:1001100079F0913018F09230E1F414C090E0C816F4
:10012000D90619F48882892D17C01882892D14C028
:1001300090E0C816D90619F47882882D0DC018826F
:10014000882D0AC090E0C816D90629F01882892D9A
:1001500003C0892D01C0892D90E002C0880F991F2E
:100160001A95E2F7082B0894E11CF11C219683E014
:10017000E816F10409F0BECF802FDF91CF911F91D7
:100180000F91FF90EF90DF90CF90BF90AF909F9036
:100190008F907F900895813089F0813028F08230EF
:1001A000B9F0833041F51EC08AB3942F909589230E
:1001B0008ABB8AB36423682B6ABB089587B3942FE4
:1001C0009095892387BB87B36423682B67BB089509
:1001D00084B3942F9095892384BB84B36423682BC4
:1001E00064BB089581B3942F9095892381BB81B31B
:1001F0006423682B61BB0895813089F0813028F039
:100200008230B9F0833041F51EC08BB3942F9095A6
:1002100089238BBB8BB36423682B6BBB089588B396
:10022000942F9095892388BB88B36423682B68BB7F
:10023000089585B3942F9095892385BB85B3642356
:10024000682B65BB089582B3942F9095892382BB58
:1002500082B36423682B62BB0895813051F08130F2
:1002600028F0823049F0833069F409C089B38623CD
:10027000089586B38623089583B38623089580B3B3
:100280008623089580E0089582E060E047E00E94C0
:10029000CB0082E06FEF40EF0E94CB0082E060E095
:1002A00040EF0E94FC000895EF92FF920F931F937E
:1002B000CF9360E100E010E0C0E00F2EF0E6EF2EFB
:1002C000F0E0FF2EF02D82E040EF0E94CB0082E0B4
:1002D00067E00E942D0180FD2CC004C081E003C0B6
:1002E00082E001C080E0F801EE0FFF1FEE0FFF1F5C
:1002F000E05AFF4FE80FF11DC18182E067E00E94E4
:100300002D018730D1F70EC0CF5F0C2F10E0F80120
:10031000EE0FFF1FEE0FFF1FEE0DFF1D6081662326
:1003200091F6C0E08C2FCF911F910F91FF90EF902D
:100330000895869580FFD2CF869580FDE5CFD0CFFA
:10034000982F907F9BBB98B3917F98BBC39A98B32B
:10035000917F98BB8295807F8BBB88B3817F88BB60
:10036000C39A88B3817F88BB88E290E00E944803EB
:100370000895823050F4603140F48111605C862F22
:100380008058809374000E94A0010895C298C19A79
:10039000982F907F9BBBC398C39AC3988295807F08
:1003A0008BBBC398C39AC39888E290E00E9448032D
:1003B00080917400982F9F5F909374008E588133C2
:1003C00040F480EC8093740081E060E00E94B90109
:1003D00008959F3C38F080E88093740080E060E0EE
:1003E0000E94B901089580E88093740081E00E9422
:1003F000A00180E496E00E94480380E060E00E9453
:10040000B90180E496E00E94480308958AB3806FA2
:100410008ABB87B38E6087BB0E9445038FE090E064
:100420000E945F0383E00E94A00184E090E00E94AC
:100430005F0383E00E94A00184E690E00E944803ED
:1004400083E00E94A00182E00E94A00188E20E9455
:10045000A00188E00E94A0010E94F30186E00E94B2
:10046000A00180E80E94A0018EE00E94A00180E12E
:100470000E94A00180E060E00E94B9010895CF933E
:10048000DF93EC018881882331F021960E94C60118
:1004900089918823D9F7DF91CF9108951092D800E0
:1004A0001092DA000E94F30180E060E00E94B9013E
:1004B00085E790E00E943F0281E067E00E94B90179
:1004C0000895E091D800F0E0E452FF4F80838AE283
:1004D0000E94C6018091D8008F5F8093D800089554
:1004E0000F931F93CF93DF93CCEDD0E08E010C5F81
:1004F0001F4F89910E94B303C017D107D1F70E9403
:10050000B7038093DA00DF91CF911F910F91089587
:100510000E94F30180E060E00E94B90185E890E06C
:100520000E943F0284EF91E00E945F0381E060E05F
:100530000E94B90183E990E00E943F0208958091F2
:10054000D7008F5F8093D7000E94F30180E060E0C6
:100550000E94B90182EA90E00E943F0284E893E0A1
:100560000E945F0381E060E00E94B9018091D700A2
:10057000833041F082EB90E00E943F0288EE93E0EE
:100580000E945F030E944E020895CF93DF93109262
:10059000D7000E94F30180E060E00E94B90180EC86
:1005A00090E00E943F028091CC00882369F0C0E077
:1005B000D0E088E893E10E945F0321968091CC000F
:1005C00090E0C817D907ACF30E944E028091CC008E
:1005D0008F5F8093CC00DF91CF9108950E948D03AF
:1005E0000E94060280E060E00E94B90185E790E089
:1005F0000E943F0281E067E00E94B9010E9444012D
:100600008F9A97980E9454018093D900982F905305
:100610009A30D0F40E9461028091D8008430D0F0EA
:100620000E9470028093DA00813019F40E948802DF
:1006300004C0823011F40E949F028091D700833061
:1006400048F00E94C50206C08A3211F0833211F4CC
:100650000E944E028091DA00813021F40E94B7039B
:100660008093DB008091DB00833061F688E893E1C2
:100670000E945F03979A8AEF90E00E945F03979829
:100680001092DB001092DA00BDCF82E083BF0895A4
:1006900012BE492F55274115510551F020E030E099
:1006A00062B76F3FE9F72F5F3F4F24173507C1F758
:1006B000907022B730E082179307D8F708958F9291
:1006C0009F92AF92BF92CF92DF92EF92FF926C0116
:1006D000CC0CDD1CCC0CDD1CEE24FF24C114D10499
:1006E000E104F10489F08824992454018AEF90E010
:1006F0000E9448030894811C911CA11CB11C8C14FD
:100700009D04AE04BF0490F3FF90EF90DF90CF9074
:10071000BF90AF909F908F9008952091CD00309121
:10072000CE004091CF005091D00060E271EA87E0A6
:1007300090E00E94E3032150304030BD29B988E1A8
:100740008AB92AB18091D100982F96959695969561
:10075000990F990F922B9AB99091D2009068877750
:10076000892B80BD08955D9BFECF8CB908955F9B5A
:10077000FECF8CB10895CF93DF938A30910548F076
:100780006AE070E00E94CF03D82FCB010E94BB0328
:100790008D2F805D0E94B303DF91CF910895AA1B36
:1007A000BB1B51E107C0AA1FBB1FA617B70710F05C
:1007B000A61BB70B881F991F5A95A9F7809590958E
:1007C000BC01CD010895A1E21A2EAA1BBB1BFD019D
:1007D0000DC0AA1FBB1FEE1FFF1FA217B307E40720
:1007E000F50720F0A21BB30BE40BF50B661F771F78
:1007F000881F991F1A9469F7609570958095909558
:0E0800009B01AC01BD01CF010895F894FFCF1C
:10080E00103132332034353640373839802A302390
:10081E000000000080456E7465722055736572206D
:10082E0050696E3A002020202057454C434F4D45CD
:10083E002E2E00202053797374656D204973204F3E
:10084E006E00496E636F72726563742050617373CC
:10085E002000202054727920416761696E2E2E008F
:10086E002020202057414954494E47000100960050
:04087E000006000070
:00000001FF
